:03000000020D08E6
:0C0D0800787FE4F6D8FD758174020D4F71
:100DF40000000001000100010001000000010001E9
:100E040000010001000000010001000100010000D8
:100E140037343143383532303936333D2F2A2D2B90
:0A0E24004D415448204552524F52F0
:0C0ED20002680000026C0000026E0000CC
:10080000780C7C007D007BFF7A0D79F47E007F20E0
:10081000120B67782C7C007D007BFF7A0E79147EAA
:10082000007F10120B67783C7C007D007BFF7A0E06
:1008300079247E007F0A120B6775484E7590FF750C
:100840007200757300757468120E2EE4F56AF56B0C
:10085000F570F571E4F508F509AD09ED75F008A43A
:10086000240CF8E6FE08E6FFC006C007ED75F008A8
:10087000A4240EF8E6FC08E6FDC004C005A909E9B9
:1008800075F008A42410F8E6FA08E6FBE975F0080C
:10089000A42412F8E6FE08E6FFE925E025E0242C72
:1008A000F8E6FDAC09EC25E025E0242DF8E6F9ECAE
:1008B00025E025E0242EF8E6FCE50925E025E024E6
:1008C0002FF8E6F5548C5389528D518E4F8F50D0AE
:1008D00005D004D007D006120D948F46E546642F4C
:1008E0006011E546642A600BE546642D6005E54627
:1008F000B42B1BE56B6401456A7008F572757300D3
:1009000075746C8546470571E57170020570E546A2
:10091000645A6062E546643D605CE546642F60565B
:10092000E546642A6050E546642D604AE546642B3E
:100930006044AB72AA73A974AF46120E94E56B645F
:1009400001456A7023E57164014570701BFB7A00F4
:10095000796CE572857383857482700A746C658224
:100960007004740065836006E56B456A7008056B6A
:10097000E56B7002056AE546643D6003020A7EE5A8
:100980006B456A7009E57145707003020A7BE56B7F
:100990006401456A7006E57145706038E56B640274
:1009A000456A7008E571640145706028120E2EE4F6
:1009B000F50AF50B120EC1050BE50B7002050AC313
:1009C000940AE50A6480948040EA7FF47E01120E66
:1009D0006F020A7BE547B42A0DAC6CAD6DAE68AF13
:1009E00069120BB8803EE547642F703EE56D456C9B
:1009F0007027120E2EE4F50AF50B120EC1050BE559
:100A00000B7002050AC3940AE50A6480948040EAE8
:100A10007FF47E01120E6F8062AC6CAD6DAE68AF7C
:100A200069120BCA8E6E8F6F803DE547B42D2CC3C3
:100A3000E569956DE568956C5012754859C3E56D8B
:100A40009569F56FE56C9568F56E801BC3E5699552
:100A50006DF56FE568956CF56E800CE569256DF5B3
:100A60006FE568356CF56E7B007A007948AF6FAE44
:100A70006E120C697FE87E03120E6F120E2E0509AE
:100A8000E50970020508C39404E508648094805069
:070A9000030208590208549B
:100E2E00757200757300757468E4F568F569F56C94
:100E3E00F56DF56EF56FF56AF56BF570F5717F0F63
:100E4E00FE120EDF7F387E00120EDF7F017E001253
:090E5E000EDF7F327E00020E6FF0
:0A0EDF00C2B3C2B4120E67C2B22201
:070EC100743C250BF8E6FF6D
:0A0EC800C2B3D2B4120E67C2B22208
:080E67008FA0D2B27F327E00A1
:100E6F00758910758B18758DFCD28EEF1FAC0670BF
:100E7F00011E4C600D308FFDC28F758B18758DFC68
:050E8F0080E9C28E2283
:040D94008D828C833D
:100D980075555AEE4F24FF9290E583458224FF92C1
:100DA80091EA4B24FF9292E54F455024FF929320FD
:100DB8009405855155802020950585525580182029
:100DC8009605855355801020970DE554B4430512B8
:100DD8000E2E8003855455E555645A600CAF5512A4
:0B0DE8000EC87FC87E00120E6FAF55D2
:010DF30022DD
:100E9400E4F549F54AEF3395E0FEEF24D0F54AEE48
:100EA40034FFF549120C1FFFAEF07C007D0A120BD3
:0D0EB400B8E54A2FFFE5493E8FF0020C4AD9
:0A0C69008E498F4A8B4B8A4C894D4F
:100C7300E4F54EF54FF550F551F552F5537FC0FEAF
:100C8300120EDFAB4BAA4CA94D120B8DB459107F3A
:100C93002D120EC8AB4BAA4CA94D744E120BA6AE27
:100CA30049AF4A7C007D0A120BCA8C528D53AE4960
:100CB300AF4A7C007D0A120BCA8E498F4AE5532442
:100CC30030FF054FE54F7002054E142454F8A60774
:100CD300D3E54A9400E549940050C4E54F24FFF559
:100CE30051E54E34FFF550C3E550648094804014C1
:100CF30074542551F8E6FF120EC8E551155170E7FB
:040D0300155080E324
:010D070022C9
:100D1400020800E493A3F8E493A34003F68001F2ED
:100D240008DFF48029E493A3F85407240CC8C333E0
:100D3400C4540F4420C8834004F456800146F6DFAF
:100D4400E4800B0102040810204080900ED2E47E5F
:100D5400019360BCA3FF543F30E509541FFEE493A4
:100D6400A360010ECF54C025E060A840B8E493A36B
:100D7400FAE493A3F8E493A3C8C582C8CAC583CA96
:100D8400F0A3C8C582C8CAC583CADFE9DEE780BE4E
:010EDE000013
:100A9700E709F608DFFA8046E709F208DFFA803E41
:100AA70088828C83E709F0A3DFFA8032E309F6082E
:100AB700DFFA8078E309F208DFFA807088828C8396
:100AC700E309F0A3DFFA806489828A83E0A3F6084A
:100AD700DFFA805889828A83E0A3F208DFFA804C24
:100AE70080D280FA80C680D4806980F280338010FB
:100AF70080A680EA809A80A880DA80E280CA803364
:100B070089828A83ECFAE493A3C8C582C8CCC583DB
:100B1700CCF0A3C8C582C8CCC583CCDFE9DEE780AB
:100B27000D89828A83E493A3F608DFF9ECFAA9F02A
:100B3700EDFB2289828A83ECFAE0A3C8C582C8CC80
:100B4700C583CCF0A3C8C582C8CCC583CCDFEADE99
:100B5700E880DB89828A83E493A3F208DFF980CCFB
:100B670088F0EF60010E4E60C388F0ED2402B404F4
:100B77000050B9F582EB2402B4040050AF2323459B
:060B87008223900AE773CF
:100B8D00BB010689828A83E0225002E722BBFE0266
:090B9D00E32289828A83E4932299
:100BA600BB010689828A83F0225002F722BBFE012E
:020BB600F32228
:100BB800EF8DF0A4A8F0CF8CF0A428CE8DF0A42E51
:020BC800FE220B
:100BCA00BC000BBE0029EF8DF084FFADF022E4CC0F
:100BDA00F875F008EF2FFFEE33FEEC33FCEE9DECD8
:100BEA00984005FCEE9DFE0FD5F0E9E4CEFD22ED1E
:100BFA00F8F5F0EE8420D21CFEADF075F008EF2F68
:100C0A00FFED33FD4007985006D5F0F222C398FD58
:050C1A000FD5F0EA22F5
:100C1F00BB010A89828A83E0F5F0A3E022500687A0
:100C2F00F009E71922BBFE07E3F5F009E319228962
:0B0C3F00828A83E493F5F07401932295
:100C4A00BB010A89828A83F0E5F0A3F0225006F7F5
:0F0C5A0009A7F01922BBFE06F3E5F009F31922F2
:00000001FF
