:03000000020110EA
:1001000037383925343536783132332D43303D2B6D
:10011000758920758DFD759850783879007A007B47
:10012000007C007D007E00C290C291C292C29330DA
:10013000940B30950830960530970280DE1201D17D
:100140003094FD3095FD3096FD3097FDA63418C3F0
:10015000E53412026394436068E534120250C3E54B
:1001600034120263943D600280B1E538120263C329
:100170009430F9E536120263C39430FBE53712027E
:1001800063FAC3942B6012EAC3942D6011EAC394FE
:1001900078601AEAC39425601BE92B0201BBE9C30E
:1001A0009B50077E01EBC39960000201BBE98BF015
:1001B000A40201BBEB600FE98BF084120274020110
:1001C000CC12027C211B1202900201CF1202BD212F
:1001D0001BC290D291D292D293C3120228E5326010
:1001E000079401F534020227D290C291D292D293A1
:1001F000120228E53260072403F534020227D29068
:10020000D291C292D293120228E53260072407F5F8
:1002100034020227D290D291D292C293120228E5E0
:10022000326004240BF53422209406753201020258
:100230004F20950675320202024F20960675320352
:1002400002024F20970675320402024F75320022D7
:1002500012026312025722D28EF5993099FDC2998B
:10026000C28E2290010093227538007537007536D2
:100270000078382275F00A84FCADF02274FE5157E4
:1002800074015157516822780A79FAD9FED8FA22B6
:10029000517C5187744D5157744151577454515783
:1002A00074485157742051577445515774525157DF
:1002B00074525157744F51577452515722EE600483
:1002C000742D5157EC600424305157ED24305157B0
:0102D000220B
:00000001FF
